:020000040800F2
:10000000E00B0020A1010008D708000869080008DB
:10001000D30800088D070008231100080000000025
:10002000000000000000000000000000BD0C0008FF
:10003000910700080000000093090008AD0D0008BA
:10004000BB010008BB010008BB010008BB010008A0
:10005000BB010008BB010008BB010008BB01000890
:10006000BB010008BB010008BB010008BB01000880
:10007000BB010008BB010008BB010008BB01000870
:10008000BB010008BB010008BB010008BB01000860
:10009000BB010008BB010008BB010008BB01000850
:1000A000BB010008BB010008BB010008BB01000840
:1000B000BB010008190E0008BB010008BB010008C5
:1000C000BB010008BB010008BB010008BB01000820
:1000D000BB010008110F0008BB010008BB010008AC
:1000E000BB010008BB010008BB010008BB01000800
:1000F000BB010008BB010008BB010008BB010008F0
:10010000BB010008BB010008BB010008BB010008DF
:10011000BB010008BB010008BB010008BB010008CF
:10012000BB010008BB010008BB010008BB010008BF
:10013000BB010008BB010008BB010008BB010008AF
:10014000BB010008BB010008BB010008BB0100089F
:10015000BB010008BB010008BB010008BB0100088F
:10016000BB010008BB010008BB010008BB0100087F
:10017000BB010008BB010008BB010008BB0100086F
:10018000BB010008BB010008DFF810D000F05EFAE8
:1001900000F04CF800480047A11D0008E00B0020CB
:1001A0000648804706480047FEE7FEE7FEE7FEE711
:1001B000FEE7FEE7FEE7FEE7FEE7FEE7B10D00081B
:1001C0008901000840EA01039B0703D009E008C940
:1001D000121F08C0042AFAD203E011F8013B00F80C
:1001E000013B521EF9D27047D2B201E000F8012B58
:1001F000491EFBD270470022F6E710B513460A46A7
:1002000004461946FFF7F0FF204610BD421C10F8C7
:10021000011B0029FBD1801A7047034611F8012BFE
:1002200000F8012B002AF9D11846704770B5054C2B
:10023000054D03E0206820448047241DAC42F9D1DD
:1002400070BD0000042400081024000830B50B46DF
:10025000014600202022012409E021FA02F59D42F6
:1002600005D303FA02F5491B04FA02F52844151ECA
:10027000A2F10102F1DC30BD2DE9F05F054600205E
:1002800092469B4688460646814640241BE0284607
:1002900041464746224600F0FAF953465A46C01AEC
:1002A000914110D311461846224600F0E1F92D1A6B
:1002B00067EB01084F4622460120002100F0D8F9E3
:1002C00017EB00094E41201EA4F10104DFDC484673
:1002D00031462A464346BDE8F09F2DE9FE4F804651
:1002E00081EA0300C00F0C46009021F0004123F08A
:1002F0000045B8EB0200A94105D240462146904690
:100300001C460B46024623F00040104347D0270D01
:10031000C7F30A00C3F30A510290401A0190402823
:100320006BDAC3F3130040F4801B0098924620B1AF
:100330000023D2EB030A63EB0B0B01985946C0F183
:100340004002504600F094F906460D465046594684
:10035000019A00F0ACF910EB08006141002487EA33
:10036000115284EAE7731A4340D0009A62B3019AAB
:10037000012A4FEA075215DC001B61EB02014FF026
:10038000004202EA0752CDE90042001C41F580110B
:1003900032462B4600F0ACF903B0BDE8F08F404682
:1003A0002146F9E7001B61EB0201001C41F58013B7
:1003B00000185B412018A2F5001747EB030140EA43
:1003C000D570B6196D4111E06D084FEA360645EA61
:1003D000C0754FEA0752001B61EB0201001C41F59A
:1003E000801149084FEA30000019514132462B462E
:1003F00003B0BDE8F04F00F06CB900980122400056
:100400000023D0EB020263EBE073009821464FEA31
:10041000E074B8EB000061EB0401E9E783F000430E
:100420005BE781F0004158E72DE9FE4F81EA0304C4
:1004300004F0004421F0004100944FF0000B23F041
:10044000004350EA01045ED052EA03045BD0C3F3D8
:100450000A54C1F30A552C44A4F2F3340194A0FBCE
:100460000254C1F3130141F48011C3F3130343F4A5
:10047000801301FB024400FB034E840A970A44EAFE
:10048000815447EA8357A4FB076802958D0A05FB50
:1004900007854FEA932C04FB0C542705029D4FEA75
:1004A000065847EA1637B5EB08056EEB070C870EC2
:1004B000920E47EA811742EA8312A7FB0201B6EBCC
:1004C0000B0164EB00042B0D43EA0C335E1844EB84
:1004D0001C50DA465146E7FB0201C5F313044FEA0C
:1004E0000B3343EA14534FEA0432019C43EA0603F8
:1004F000A4F10C040294009CCDE900B400F0F8F8DB
:1005000003B0BDE8F08F00200146F9E72DE9F04D7A
:1005100081EA030404F0004B21F0004514464FF03B
:10052000000A23F0004150EA050220D054EA0102FB
:100530001DD0C5F30A570246C5F31303C1F31300D8
:10054000C1F30A5640F4801543F48013A7EB060864
:10055000101BD64608F2FD3873EB050002D308F1F4
:10056000010801E092185B41B8F1000F03DA0020A6
:100570000146BDE8F08D00204FF480110646844608
:100580000EE0171B73EB050705D3121B63EB050386
:1005900006434CEA010C49084FEA300092185B41CF
:1005A00050EA0107EDD152EA030012D082EA0400BA
:1005B00083EA0501084305D0101BAB4106D2012296
:1005C000002306E000224FF0004302E06FF001023A
:1005D00053101AEB06004CEB085110EB0A0041EBEC
:1005E0000B01BDE8F04D00F074B8C1F30A52C1F33D
:1005F000130140F2FF3341F480119A4202DA0020E5
:100600000146704740F233439A42A2F2334202DC81
:10061000524200F03CB800F02BB8000030B5041E88
:1006200071F1000404DB4FF00044404264EB01012F
:10063000141E73F1000405DB1C464FF000435242C8
:1006400063EB0403994208BF904230BD064C074D4E
:1006500006E0E06840F0010394E807009847103492
:10066000AC42F6D3FFF794FDE4230008042400080D
:10067000202A04DB203A00FA02F100207047914062
:10068000C2F1200320FA03F3194390407047202A57
:1006900004DB203A21FA02F00021704721FA02F32C
:1006A000D040C2F120029140084319467047202AE9
:1006B00006DBCB17203A41FA02F043EAE07306E08A
:1006C00041FA02F3D040C2F120029140084319469A
:1006D000704710B5141E73F1000408DA401C41F194
:1006E000000192185B411A4301D120F0010010BDB6
:1006F0002DE9F04D92469B4611B1B1FA81F202E02C
:10070000B0FA80F220329046FFF7B2FF04460F465F
:1007100040EA0A0041EA0B0153465A46084313D007
:10072000114653EA010019D0C8F140025046FFF7C4
:10073000AEFF05460E46504659464246FFF798FF23
:10074000084305D0012004E020463946BDE8F08D7D
:100750000020054346EAE0762C4337430A986305B8
:10076000E40AA0EB08000022FD0A44EA47540A30DC
:1007700002D500200146E9E7010510196941DDE9CC
:10078000084500196941BDE8F04DA2E700BFFEE74A
:100790007047F0B50A4600210023002400BF3DE069
:1007A000012505FA01F3156805EA03049C4234D1DA
:1007B00005684F000326BE40B543056015794E001D
:1007C000B5400668354305601579012D02D01579CD
:1007D000022D16D185684F000326BE40B5438560C3
:1007E00055794E00B54086683543856045680126D9
:1007F0008E40B5434560456896798E40B6B2354324
:100800004560C5684F000326BE40B543C560D57935
:100810004E00B540C6683543C560491C1029BFD39A
:10082000F0BDF0B5002300244D07ED0E02FA05F3EC
:10083000CE1000F1200555F826504E07F70E0F2672
:10084000BE40B543CF1000F1200646F82750CE1029
:1008500000F1200555F8265045EA0304CE1000F1BA
:10086000200545F82640F0BD70B500BFEFF30880C5
:100870000446204600F0B0F800BFEFF309800546BB
:10088000284600F0A9F870BD10B50289521C838873
:1008900092FBF3F403FB1422C3889A420DD103891F
:1008A0000268D154C2880281C288521C838892FB9C
:1008B000F3F403FB1422C2800AE003890268D154D6
:1008C0000289521C838892FBF3F403FB14220281F9
:1008D00010BD00BFFEE7704770B5002100230F2256
:1008E000C4781CB3174C246804F4E064C4F5E064D5
:1008F000C4F30721C1F10404E3B20A4144789C40E7
:10090000E1B28478144021430C07210E0E4C057887
:100910006155047804F01F050124AC4005786D1181
:10092000AD0005F1E025C5F8004109E0047804F0C8
:100930001F050124AC40054D0678761145F8264088
:1009400070BD00000CED00E000E400E080E100E09C
:1009500002490143024A1160704700000000FA0595
:100960000CED00E010B503460C46184600F0F8F810
:1009700008B1002010BDD9881868405C2070D88864
:10098000401C998890FBF1F201FB1200D8800120F5
:10099000F0E77047F8B504460E4615460027206874
:1009A00000902068B0B120684068A84202DA206850
:1009B000406800E028460546206800F108012A4604
:1009C0003046FFF7FFFB206800682060684601F0B2
:1009D000BFFA2F463846F8BD70B5044613A001F0A3
:1009E00095FA254621A0296801F090FA22A06968AD
:1009F00001F08CFA23A0A96801F088FA24A0E96824
:100A000001F084FA25A0296901F080FA27A069691C
:100A100001F07CFA28A0A96901F078FA29A0E96917
:100A200001F074FA2BA001F071FA70BD0D0A2D2DA2
:100A30002D2D2D2D2D2D2D2D2D2D2D2D2D2D2D45CE
:100A400052524F52202D2D2D2D2D2D2D2D2D2D2D52
:100A50002D2D2D2D2D2D0D0A486172644661756C6A
:100A6000745F48616E646C65720D0A0052303A30F2
:100A700078253038580D0A0052313A307825303810
:100A8000580D0A0052323A3078253038580D0A0095
:100A900052333A3078253038580D0A005231323A04
:100AA0003078253038580D0A000000004C523A309A
:100AB00078253038580D0A0050433A3078253038C0
:100AC000580D0A00785053523A3078253038580D76
:100AD0000A000000CFB5CDB3BCB4BDABB8B4CEBB3B
:100AE000202E2E2E0D0A00002DE9F04106460F465D
:100AF00015464FF00108306890B905F1080001F083
:100B000045FA044614B94FF0000826E02A46394653
:100B100004F10800FFF756FB0020206065601AE032
:100B200000E0246820680028FBD105F1080001F0EE
:100B30002DFA2060206810B94FF000080DE0216800
:100B400001F108002A463946FFF73CFB00202168E6
:100B5000086020684560346000BF4046BDE8F08111
:100B60000146C8880A89904201D1012070470020BF
:100B7000FCE7000029B1064A12680243044B1A60E0
:100B800004E0034A12688243014B1A607047000078
:100B90003038024029B1064A12680243044B1A60F9
:100BA00004E0034A12688243014B1A607047000058
:100BB0004038024029B1064A12680243044B1A60C9
:100BC00004E0034A12688243014B1A607047000038
:100BD00044380240F0B500210022002402250026FE
:100BE0000223324F3F6807F00C0121B1042905D0E0
:100BF000082937D105E02E4F076036E02D4F0760FA
:100C000033E02A4F3F1F3F68C7F38056274F3F1FEF
:100C10003F6807F03F036EB1264FB7FBF3F7DFF8ED
:100C20008CC0ACF1040CDCF800C0CCF3881C07FBD2
:100C30000CF40CE01E4FB7FBF3F7DFF870C0ACF11B
:100C4000040CDCF800C0CCF3881C07FB0CF4174F35
:100C50003F1F3F68C7F301477F1C7D00B4FBF5F7DA
:100C6000076002E0124F076000BF00BF0F4F3F68F0
:100C700007F0F0010909104F7A5C0768D740476018
:100C80000A4F3F6807F4E051890A0B4F7A5C4768C6
:100C9000D7408760054F3F6807F46041490B064F16
:100CA0007A5C4768D740C760F0BD00000838024052
:100CB0000024F40000127A00840000207047000035
:100CC0000CB50020019000903448006840F480305A
:100CD0003249086000BF3148006800F400300090DD
:100CE0000198401C0190009818B90198B0F5A04FE8
:100CF000F1D12A48006800F4003010B101200090C2
:100D000001E0002000900098012846D1234840309F
:100D1000006840F080502149403108602048006858
:100D200040F440401E4908601C48083000681B49D8
:100D3000083108600846006840F400400860084632
:100D4000006840F4A05008601648091F0860081F9A
:100D5000006840F08070091F086000BF0F480068FD
:100D600000F000700028F9D040F205700E490860CC
:100D70000A480830006820F003000849083108607C
:100D80000846006840F00200086000BF03480830D1
:100D9000006800F00C000828F8D10CBD00380240B3
:100DA0000070004008544007003C024070470000BB
:100DB00010B51548006840F47000134908601348E6
:100DC000006840F001001149086000200F49083117
:100DD00008600E4800680E4908400C4908600D483C
:100DE000091D0860081F006820F48020091F0860A2
:100DF000002006490C310860FFF762FF4FF00060E9
:100E000001498039086010BD88ED00E000380240DB
:100E1000FFFFF6FE1030002410B50121054800F058
:100E20001AF8012805D101F03FFA0121014800F02C
:100E300003F810BD00040040CA430282704721B18C
:100E4000028842F00102028004E002884FF6FE733D
:100E50001A400280704730B502460020002300246B
:100E6000158A05EA0103958905EA010413B10CB15D
:100E7000012000E0002030BD1AB183890B4383813B
:100E800002E083898B43838170470000002202883F
:100E9000184B98420ED0184B98420BD0B0F1804FAF
:100EA00008D0164B984205D0154B984202D0154BEE
:100EB000984204D14FF68F731A404B881A43124B55
:100EC000984207D0114B984204D04FF6FF431A4086
:100ED0000B891A4302804B68C3620B880385054B5C
:100EE000984202D0044B984201D18B7A03860123A9
:100EF000838270470000014000040140000400406C
:100F000000080040000C00400010004000140040A9
:100F100038B540F22551144800F041F840B112486C
:100F200000F0F6F8C4B2214610480068FFF7ACFCA8
:100F300040F227710C4800F032F898B10C48006874
:100F400050B168460A490968884728B19DF80010E1
:100F5000054800F0E2F805E0002240F2277102485F
:100F600000F047F838BD0000001001407C00002070
:100F70008000002001F40072B2F5007F00D100BFB4
:100F8000CA430280704721B1828942F400528281B3
:100F900004E082894DF6FF731A408281704770B574
:100FA0000246002400230025002040F66A16B142C4
:100FB00000D100BFC1F3421501F01F03012606FA5C
:100FC00003F3012D02D19689334006E0022D02D1B0
:100FD000168A334001E0968A33400C12012606FA45
:100FE00004F41688344013B10CB1012000E0002055
:100FF00070BDF0B50346002400260025002040F611
:101000006A17B94200D100BF1846C1F3421401F07B
:101010001F06012707FA06F5012C01D10C3004E068
:10102000022C01D1103000E014301AB107682F43B0
:10103000076002E00768AF430760F0BD2DE9FF4796
:1010400005460E460024A14600BFA046B08900B167
:1010500000BF2C8A24F44054F08804432C82AC89CD
:1010600041F20C608443B088318908437189084398
:101070000443AC81AC8A24F44074B0890443AC824C
:101080006846FFF7A7FD2048854202D01F488542E9
:1010900002D1DDF80C9001E0DDF80890A88900F499
:1010A000004040B109EBC90000EB0910316849006C
:1010B000B0FBF1F707E009EBC90000EB091031685C
:1010C0008900B0FBF1F76420B7FBF0F004012009C0
:1010D000642101FB1078A88900F4004040B132205F
:1010E00000EBC800B0FBF1F000F00700044308E09B
:1010F000322000EB08106421B0FBF1F000F00F008B
:1011000004432C81BDE8FF8700100140001401401A
:1011100001468888C0F308007047C1F30802828046
:10112000704700BFFEE700007CB5044600201D4666
:10113000164600290BD0491ECDE90041044B6A46F2
:101140002946304600F0D8F8009A002111707CBD85
:10115000271A000802E008C8121F08C1002AFAD1A5
:1011600070477047002001E001C1121F002AFBD127
:10117000704700002DE9FF5F82B00021DDE90430F7
:10118000020DDDF840B0034318D044F61050A2F22F
:10119000FF3242431514119801281FD0A5EB0B0014
:1011A000401C5FEA000A4FF000064E4FDFF838910E
:1011B000B046504615D5CAF1000413E01198012439
:1011C0004AA3012801D16FEA0B010298119AC0E9E4
:1011D0000031C0E9024206B0BDE8F09FCBF100004B
:1011E000DFE704460021404A491842EB0450CDE9AC
:1011F000001012E0E00707D032463B464046494621
:10120000FFF712F98046894632463B46104619469A
:10121000FFF70AF906460F466410002CEAD1DDE913
:101220000401DDE90023BAF1000F06DAFFF7FCF84C
:1012300042464B46FFF7F8F805E0FFF767F94246EC
:101240004B46FFF763F904460E460022284BFFF792
:10125000E5F903D84FF0FF30014607E00022254BA7
:1012600020463146FFF739F8FFF7BFF9102409E0AF
:10127000002C0ADB0A220023FEF7FEFF039B30321C
:101280001A55641E50EA0102F2D1641C039AC4F19B
:1012900011031444119A012A03D0012208430DD1ED
:1012A0000AE0084304D000204FF0110B119072E7C0
:1012B000A3EB0B056D1E0DE05B4504DD4FF0000256
:1012C00005F1010504E003DA4FF00002A5F1010584
:1012D000002AECD002981199C0E90231C0E900451A
:1012E00079E70000000014400000F03F30000000EB
:1012F0000000F0430000E03F2DE9FF4F95B09B4612
:101300008946064600250FE2252877D10024274686
:10131000F84A0121059400E0044316F8013F203B00
:1013200001FA03F01042F7D130782A2811D06FF07B
:101330002F033078A0F13002092A16D8059A44F01C
:10134000020402EB820203EB42021044761C059079
:10135000EFE759F8042B0592002A03DA504244F4CF
:101360000054059044F00204761C30782E2816D1E3
:1013700016F8010F44F004042A280DD06FF02F0254
:101380003078A0F13003092B09D807EB870302EB73
:101390004303C718761CF3E759F8047B761C3078B2
:1013A0006C280FD006DC4C2817D068280DD06A288E
:1013B00014D104E0742810D07A280FD10DE044F441
:1013C00000140AE044F4801401E044F440147278FC
:1013D000824202D104F58014761C761C307866288F
:1013E0000BD013DC582877D009DC002875D04528AD
:1013F000F6D04628F4D047281AD19DE118E063289A
:1014000035D0642879D0652812D195E1702873D041
:1014100008DC6728F1D069286FD06E280DD06F28BE
:1014200006D1B5E073282CD0752875D0782874D0F3
:101430005A46179990476D1C75E1C4F30250022873
:1014400009D003280DD0D9F8001004280DD00D6064
:1014500009F1040967E1D9F80010EA17C1E900525F
:10146000F6E7D9F800100D80F2E70D70F0E719F8F3
:10147000041B8DF8001000208DF80100EA460120C1
:1014800003E059F804AB4FF0FF3061074FF0000163
:1014900002D40DE008F101018846B9420FDA804517
:1014A000F8DB1AF808100029F4D108E008F101016E
:1014B00088468142FADB1AF808100029F6D105980F
:1014C0005B46A0EB080721463846179A00F094FACD
:1014D000284400EB080507E04DE029E10DE01AF88B
:1014E000010B5A4617999047B8F10108F7D25B46AD
:1014F00021463846179A13E142E00A220092C4F3CB
:1015000002524FF0000A022A08D059F804CB032AED
:101510004FEAEC710AD00DE029E02AE009F1070159
:1015200021F00702F2E802C1914609E00FFA8CFCB3
:101530004FEAEC71042A03D14FFA8CFC4FEAEC71AC
:10154000002907DA0A460021DCF1000C61EB0201F8
:101550002D2202E0220504D52B228DF80420012241
:1015600003E0E20701D02022F7E7904659E00A2184
:1015700002E010220DE010214FF0000A00910BE074
:1015800010224FF0000A44F004040827009203E000
:1015900008224FF0000A0092C4F30252022A05D03A
:1015A00059F804CB0021032A08D009E009F107010A
:1015B00021F00702F2E802C1914605E01FFA8CFC17
:1015C000042A01D10CF0FF0C4FF00008220728D5A7
:1015D000702806D0009B83F0100353EA0A0305D05D
:1015E0000EE040228DF80420012208E05CEA0102AE
:1015F00006D030228DF804208DF805000222904696
:10160000009B83F0080353EA0A030AD15CEA010253
:1016100001D1620705D530228DF804204FF0010872
:101620007F1E582804D034A003900EA802900DE02D
:1016300036A0F9E753466046009AFEF71DFE844641
:101640000398825C0298401E029002705CEA0100DE
:10165000F0D1029806A9081A00F1200A600702D505
:1016600024F4803400E00127574502DDA7EB0A008F
:1016700000E0002000EB0A01009005984144401A68
:101680000590E00306D45B462146179A059800F0C2
:10169000B3F90544002706E001A85A46C05D179932
:1016A00090476D1C7F1C4745F6DBE0030CD55B467D
:1016B0002146179A059800F09FF9054404E0302070
:1016C0005A46179990476D1C0099481E00900029B2
:1016D000F5DC08E0029802995A460078491C02910C
:1016E000179990476D1CBAF10001AAF1010AF1DCCB
:1016F00065E10000092801003031323334353637D6
:10170000383961626364656600000000303132334D
:1017100034353637383941424344454600000000ED
:1017200000F058F90544761C307800287FF4ECADC1
:1017300019B02846BDE8F08F620700D4062709F1EA
:10174000070222F0070CFCE80223E14603F0004800
:101750005FEA080C02D00FF2702C0DE05FEA045C27
:1017600002D50FF2682C07E05FEAC47C02D00FF2CA
:10177000602C01E0AFF2700C4FF0FF3823F0004313
:10178000CDF850C065280CD006DC452809D0462885
:101790001DD047283DD13DE0662818D067287ED16E
:1017A00038E00021112F01DB112000E0781CCDE989
:1017B000000106A90EA8FFF7DDFCDDE90F010E9A76
:1017C00003910021009207F1010A04914DE04FF0CE
:1017D00000400097CDE9011006A90EA8FFF7CAFC4A
:1017E000DDE90F0203920E9B11990022DDF80CA097
:1017F0000093049211B9791C00EB010AB7EB0A00BF
:1018000004D4C0F1FF3007F1010A0490AAEB0700ED
:10181000019044E0012F00DA01270021112F01DDA2
:10182000112000E03846CDE9000106A90EA8FFF717
:10183000A1FCDDE90F010E9A0391002104910092B1
:10184000BA4621070CD40399514500DA8A46BAF109
:10185000010F05DD009AAAF10101515C302908D081
:10186000B84202DA10F1040F06DA0121CDE90110C5
:1018700015E0AAF10101E9E7002805DC049901441B
:101880000491AAEB000102E0411C514500DD8A46AB
:101890000499401A401C01904FF00040029020072C
:1018A00004D40198504501DBCDF8048000208DF868
:1018B0004F0002980DF14F07B0F1004F25D02B20BB
:1018C0000E9002984FF0020800280CDA4042029075
:1018D0002D200E9007E00A210298FEF7B7FC303168
:1018E000029007F8011DB8F10001A8F10108F2DC2F
:1018F00002980028EFD1791E0E980870307800F019
:10190000200040F0450007F8020D12A8C01B00F1AE
:1019100007081498007800B1012000EB0A01019833
:1019200001EBE07105984144401A401E0590E00328
:1019300006D45B462146179A059800F05DF80544E9
:101940001498007818B15A46179990476D1CE00317
:1019500024D55B462146179A059800F04DF80544BA
:101960001CE00498002807DBDDE90301884203DD61
:101970000098405C179901E0179930205A4690472B
:10198000049805F10105401C04900198401E019047
:1019900004D12E205A46179990476D1CBAF10001C8
:1019A000AAF1010ADDDC05E017F8010B5A46179988
:1019B00090476D1CB8F10001A8F10108F4DC5B460A
:1019C0002146179A0598ABE62D0000002B00000079
:1019D000200000002DE9F041044600251E46174670
:1019E000880404D405E039462020B0476D1C641EED
:1019F000F9D52846BDE8F0812DE9F04104460025DF
:101A00001E469046C80301D5302700E020278804F1
:101A100004D505E041463846B0476D1C641EF9D533
:101A20002846BDE8F0814A68002A06D00A68531C9F
:101A30000B6010704868401E4860704770B50546DE
:101A40000E46002405E0295D06480068FEF71CFFED
:101A5000641CB442F7D30448006810B1024800681F
:101A6000804770BDC4000020C800002070B5044647
:101A70000D466560608928B9054904F1100000F041
:101A80007FF904E0034904F1100000F079F970BD1A
:101A9000A8000020A00000207FB505460C460121CB
:101AA0000220FFF777F80295ADF804400020ADF86A
:101AB00006004FF40070ADF80C0001A90D48FFF7C7
:101AC000E5F9012211460B48FFF7D6F90121094833
:101AD000FFF7B5F91D208DF8000001208DF80100F9
:101AE00003208DF8020001208DF803006846FEF700
:101AF000F3FE7FBD000400402DE9F04105460E468F
:101B00001746012F03D1288940F4804028812548B9
:101B10000068A0F110040BE0AC4206D16660208999
:101B200020F400402081BDE8F0812069A0F110047C
:101B300004F110001B498842EED11B480068A0F157
:101B4000100406E0AC4201D16660ECE72069A0F128
:101B5000100404F1100014498842F3D113480068BE
:101B6000A0F110040CE0AC4207D166606089A0814E
:101B70000E49204600F090F9D5E72069A0F1100445
:101B800004F1100009498842EDD16889A88100203C
:101B9000688131462846FFF769FFA889688100BF40
:101BA000C1E70000B0000020A8000020A000002035
:101BB00070B505461E480068A0F1100409E0AC426B
:101BC00004D104F1100000F0E2F870BD2069A0F12A
:101BD000100404F1100016498842F0D1154800683D
:101BE000A0F1100409E0AC4204D1208940F4004087
:101BF0002081EAE72069A0F1100404F110000D49EA
:101C00008842F0D10C480068A0F1100409E0AC4211
:101C100004D104F1100000F0BAF8D6E72069A0F171
:101C2000100404F1100004498842F0D100BFCCE751
:101C3000A0000020B0000020A800002010B50A4835
:101C400001680AA000F062F9074841680EA000F0A0
:101C50005DF90548816813A000F058F90C211BA01C
:101C600000F054F910BD0000D40700205B494E4637
:101C70004F5D3AD7DCB9B2D3D0B6E0C9D9BFE9A33A
:101C8000BA25640D0A0D0A005B494E464F5D3ACAFB
:101C9000B9D3C3C1CBB6E0C9D9BFE9A3BA25640D96
:101CA0000A0D0A005B494E464F5D3AC4DAB4E6B30A
:101CB000D8D3C3B5F4C1CBCAFDD7E9B5C4B4F3D00A
:101CC000A1A3BA25640D0A0D0A0000005B494E4627
:101CD0004F5D3A706F6F6C5F74D5BCB5C4D7D6BD1D
:101CE000DACAFD3A2025640D0A0D0A0D0A0000002B
:101CF0000FB4F8B51F490E4607A8009000232FE047
:101D0000009804C80090009820C80090002423E0A8
:101D100001F10C001044401E174FB84205D90020B5
:101D2000B0600120F8BC5DF814FB4A6001F10C00C2
:101D300010448860002008700E4689680F480068CB
:101D4000401C0E4F38603846876802F10C0038445A
:101D50000A4FB860601CC4B2AC42D9D3581CC3B29D
:101D6000069800EBD077B3EB670FC9DB002000903B
:101D70000120D7E720040020D4070020D40700204A
:101D80004A68486001604260106000BF7047D0E957
:101D900000124A60116000BF00210160416070477D
:101DA00086B04FF4A060FEF7D3FD274800F0C4F9D9
:101DB000264800F025F90220C8230C223221009089
:101DC0000620FFF795FF4FF4E13000F09FFA532112
:101DD00040F2E730FFF760FE0020059033E0142169
:101DE0006846FEF708FA00F011F926E018A5284623
:101DF000FEF70CFA06463246294605A8FEF774FEA1
:101E000010B916A000F082F8FFF718FF14216846F9
:101E1000FEF7F1F91422694605A8FEF7BBFDC4B22E
:101E200014B912A000F072F86A46214613A000F01F
:101E30006DF800201749086000BF164800F04CFA02
:101E40006428D3D800BFCAE7ED1F00084521000869
:101E500068656C6C6F20776F726C64005B455252E2
:101E60005D3A707573685175650D0A005B45525295
:101E70005D3A506F705175650D0A00005B45525216
:101E80005D3A746573743A2025642C2025730D0A1D
:101E9000000000000800002070B504460D461848F8
:101EA000854209D104F11000FFF771FF154904F1D3
:101EB0001000FFF765FF21E01248854209D104F1C7
:101EC0001000FFF764FF104904F11000FFF758FFFE
:101ED00014E0608948B104F11000FFF758FF084989
:101EE00004F11000FFF74CFF08E004F11000FFF7C9
:101EF0004EFF044904F11000FFF742FF70BD0000DF
:101F0000A0000020A8000020B00000200FB438B5C9
:101F1000002405A80090FA210748009B049AFFF7C7
:101F200003F904460020009021460348FFF786FD90
:101F3000204638BC5DF814FB2403002070B504462D
:101F40000D46012229462046FFF7D6FD70BD000050
:101F500010B5024600200B4910E001F10C03146893
:101F60009C420AD1012000230B70074B5B685B1E6B
:101F7000054C63600023136002E089680029ECD1FE
:101F800000BF10BD20040020D40700200EB502467B
:101F900014490192CDF808D010E0087868B9486873
:101FA00090420AD36B460298984200D10291486849
:101FB000029B5B68984200D8029189680029ECD1A5
:101FC0006B460298984201D100200EBD0120029B71
:101FD000187005484068401C034B586002980C304C
:101FE000F3E7000020040020D407002010B50446C9
:101FF000214602480068FEF7B5FC10BDC400002071
:102000000149086070470000C800002010B586B084
:102010004548006844490A79012191400840002858
:1020200030D042480068A0F1100413E0A089401E9F
:10203000A081A08958B9182221466846FEF7C2F847
:102040006089A08139492046FFF726FF6C46206948
:10205000A0F1100404F1100034498842E6D132485E
:10206000006831490A790121914088432E4908606E
:1020700008460079401C0871084600791F2801DDD8
:10208000002008712A480068A0F110040CE0182212
:1020900021466846FEF796F825492046FFF7FCFEE4
:1020A0006C462069A0F1100404F110002049884218
:1020B000EDD120480068A0F110042DE0182221463F
:1020C0006846FEF77FF8608920B11A492046FFF77D
:1020D000E3FE03E017492046FFF7DEFE208900F407
:1020E000004038B12046FFF763FD208920F400400E
:1020F00020810DE0D4E900108847208900F4804059
:1021000030B1208920F4804020812046FFF750FD27
:102110006C462069A0F1100404F1100005498842C2
:10212000CCD106B010BD000098000020A000002017
:10213000A8000020B000002001490860704700009E
:102140008000002010B5012240F227710148FEF7FF
:1021500050FF10BD0010014038B5044625681348F3
:102160000068401C114908600846006802280DDD1F
:102170000F491048FFF7E2FE0FA0FFF7C7FE00204F
:102180000A490860294614A0FFF7C0FE17A0FFF710
:10219000BDFE6420FFF7FAFE009019A10098FEF73B
:1021A0003CF86846FFF7D4FE38BD00003000002040
:1021B00034000020380000205B494E464F5D3A74E1
:1021C00061736B5F31206E6F74696679207461731F
:1021D0006B5F320A0D0A00005B494E464F5D3A764E
:1021E000616C203D2025640A0D0A00005B494E46C3
:1021F0004F5D3A7461736B310D0A0D0A00000000E7
:102200007461736B312069732072756E0000000079
:1022100010B502490248FFF729FC10BD2C00002030
:102220001000002010B504460A480068401C094907
:10223000086008460068642801DD00200860054841
:102240000068192805DD0448FFF7B2FC00200149A9
:10225000086010BD500000203800002010B500219B
:102260000148FFF703FC10BD3800002010B50446FC
:1022700007480068401C0649086008460068322884
:1022800004DD002008600348FFF792FC10BD000049
:102290006C0000203800002010B500210148FFF735
:1022A000E5FB10BD540000200948006800F01F0045
:1022B00008494871084600684A790121914008435D
:1022C0000449086002480068401C014908607047E2
:1022D00094000020980000200146086810B90A48C0
:1022E00000680860084A08681268904204D8064AE4
:1022F00008681268101A70470868C0F1FF30024A77
:1023000012681044F7E700009400002010B588B070
:10231000044601210846FEF72DFC01211020FEF79E
:1023200049FC072209212748FEF77BFA07220A21E8
:102330002448FEF776FA4FF4C060069002208DF82C
:102340001C008DF81D0000208DF81E0001208DF866
:102350001F0006A91B48FEF71CFA02940020ADF8E6
:102360000C00ADF80E00ADF81000ADF814000C2014
:10237000ADF8120002A91448FEF760FE01211248D0
:10238000FEF701FE40211048FEF7F4FD012240F265
:1023900025510D48FEF72DFE012240F224410A4846
:1023A000FEF727FE25208DF8040003208DF8050098
:1023B0008DF8060001208DF8070001A8FEF78CFAC1
:1023C00008B010BD00000240001001404D617220B5
:1023D000323820323032340031393A34373A3439F5
:1023E000000000001024000800000020CC000000C5
:1023F00054110008DC240008CC000020140B00005D
:10240000641100080DFEFFFF55FEFFFF8DFEFFFF6C
:10241000CC230008D82300080000000000000000C2
:1024200059210008000000000000F401F401000040
:102430000000000000000000000000000500000097
:10244000000000000A000000252200080000000033
:1024500000002C012C010000000000000000000022
:10246000000000006D220008000000000000D007FE
:10247000D007000000000000000000000000000085
:10248000CC0000206400000000000000700000206C
:102490000000000000000000010203040102030428
:1024A000060708090000000000000000000000000E
:1024B000A0000020A0000020A8000020A80000200C
:1024C000B0000020B000002030010020F401000026
:0C24D00000000000B80000200000000028
:040000050800018965
:00000001FF
