:020000040800F2
:10000000680500209D010008A30300087F03000885
:100010009F030008A30200080F0B00080000000067
:100020000000000000000000000000008D06000835
:10003000A702000800000000310400087D07000846
:10004000B7010008B7010008B7010008B7010008B0
:10005000B7010008B7010008B7010008B7010008A0
:10006000B7010008B7010008B7010008B701000890
:10007000B7010008B7010008B7010008B701000880
:10008000B7010008B7010008B7010008B701000870
:10009000B7010008B7010008B7010008B701000860
:1000A000B7010008B7010008B7010008B701000850
:1000B000B7010008E9070008B7010008B701000808
:1000C000B7010008B7010008B7010008B701000830
:1000D000B7010008E1080008B7010008B7010008EF
:1000E000B7010008B7010008B7010008B701000810
:1000F000B7010008B7010008B7010008B701000800
:10010000B7010008B7010008B7010008B7010008EF
:10011000B7010008B7010008B7010008B7010008DF
:10012000B7010008B7010008B7010008B7010008CF
:10013000B7010008B7010008B7010008B7010008BF
:10014000B7010008B7010008B7010008B7010008AF
:10015000B7010008B7010008B7010008B70100089F
:10016000B7010008B7010008B7010008B70100088F
:10017000B7010008B7010008B7010008B70100087F
:10018000B7010008B7010008DFF80CD000F058F8FC
:100190000048004711110008680500200648804704
:1001A00006480047FEE7FEE7FEE7FEE7FEE7FEE75C
:1001B000FEE7FEE7FEE7FEE7810700088901000889
:1001C00010B5002200E0521C835C8C5CA34201D17C
:1001D000002BF8D1D8B2E1B2401A10BD2DE9F05F82
:1001E0000546002092469B468846064681464024A6
:1001F0001BE0284641464746224600F042F8534657
:100200005A46C01A914110D311461846224600F0B2
:1002100029F82D1A67EB01084F46224601200021DC
:1002200000F020F817EB00094E41201EA4F1010454
:10023000DFDC484631462A464346BDE8F09F0000D1
:10024000064C074D06E0E06840F0010394E8070023
:1002500098471034AC42F6D3FFF79AFF54130008C6
:1002600074130008202A04DB203A00FA02F100206F
:1002700070479140C2F1200320FA03F319439040E4
:100280007047202A04DB203A21FA02F0002170474F
:1002900021FA02F3D040C2F12002914008431946EE
:1002A000704700BFFEE77047F0B50A460021002303
:1002B000002400BF3DE0012505FA01F3156805EAB9
:1002C00003049C4234D105684F000326BE40B54369
:1002D000056015794E00B54006683543056015790F
:1002E000012D02D01579022D16D185684F00032605
:1002F000BE40B543856055794E00B54086683543AC
:100300008560456801268E40B5434560456896790D
:100310008E40B6B235434560C5684F000326BE40E7
:10032000B543C560D5794E00B540C6683543C56054
:10033000491C1029BFD3F0BDF0B5002300244D07A0
:10034000ED0E02FA05F3CE1000F1200555F8265007
:100350004E07F70E0F26BE40B543CF1000F1200622
:1003600046F82750CE1000F1200555F8265045EAF2
:100370000304CE1000F1200545F82640F0BD00BF73
:10038000EFF308800446204600F054F800BFEFF376
:1003900009800546284600F04DF800BFFEE700BF83
:1003A000FEE7704770B5002100230F22C4781CB30C
:1003B000174C246804F4E064C4F5E064C4F3072136
:1003C000C1F10404E3B20A4144789C40E1B284786C
:1003D000144021430C07210E0E4C0578615504781A
:1003E00004F01F050124AC4005786D11AD0005F146
:1003F000E025C5F8004109E0047804F01F05012458
:10040000AC40054D0678761145F8264070BD0000D9
:100410000CED00E000E400E080E100E0024901436F
:10042000024A1160704700000000FA050CED00E080
:100430007047000070B5044613A000F06BFB254622
:1004400021A0296800F066FB22A0696800F062FB29
:1004500023A0A96800F05EFB24A0E96800F05AFB25
:1004600025A0296900F056FB27A0696900F052FB1E
:1004700028A0A96900F04EFB29A0E96900F04AFB19
:100480002BA000F047FB70BD0D0A2D2D2D2D2D2D1D
:100490002D2D2D2D2D2D2D2D2D2D2D4552524F52E3
:1004A000202D2D2D2D2D2D2D2D2D2D2D2D2D2D2D89
:1004B0002D2D0D0A486172644661756C745F486148
:1004C0006E646C65720D0A0052303A30782530380F
:1004D000580D0A0052313A3078253038580D0A004C
:1004E00052323A3078253038580D0A0052333A30BB
:1004F00078253038580D0A005231323A307825309C
:1005000038580D0A000000004C523A307825303837
:10051000580D0A0050433A3078253038580D0A00FB
:10052000785053523A3078253038580D0A00000080
:10053000CFB5CDB3BCB4BDABB8B4CEBB202E2E2E40
:100540000D0A000029B1064A12680243044B1A60E2
:1005500004E0034A12688243014B1A6070470000AE
:100560003038024029B1064A12680243044B1A602F
:1005700004E0034A12688243014B1A60704700008E
:100580004038024029B1064A12680243044B1A60FF
:1005900004E0034A12688243014B1A60704700006E
:1005A00044380240F0B50021002200240225002634
:1005B0000223324F3F6807F00C0121B1042905D016
:1005C000082937D105E02E4F076036E02D4F076030
:1005D00033E02A4F3F1F3F68C7F38056274F3F1F26
:1005E0003F6807F03F036EB1264FB7FBF3F7DFF824
:1005F0008CC0ACF1040CDCF800C0CCF3881C07FB09
:100600000CF40CE01E4FB7FBF3F7DFF870C0ACF151
:10061000040CDCF800C0CCF3881C07FB0CF4174F6B
:100620003F1F3F68C7F301477F1C7D00B4FBF5F710
:10063000076002E0124F076000BF00BF0F4F3F6826
:1006400007F0F0010909104F7A5C0768D74047604E
:100650000A4F3F6807F4E051890A0B4F7A5C4768FC
:10066000D7408760054F3F6807F46041490B064F4C
:100670007A5C4768D740C760F0BD00000838024088
:100680000024F40000127A000400002070470000EB
:100690000CB50020019000903448006840F4803090
:1006A0003249086000BF3148006800F40030009013
:1006B0000198401C0190009818B90198B0F5A04F1E
:1006C000F1D12A48006800F4003010B101200090F8
:1006D00001E0002000900098012846D123484030D6
:1006E000006840F08050214940310860204800688F
:1006F00040F440401E4908601C48083000681B490F
:10070000083108600846006840F400400860084668
:10071000006840F4A05008601648091F0860081FD0
:10072000006840F08070091F086000BF0F48006833
:1007300000F000700028F9D040F205700E49086002
:100740000A480830006820F00300084908310860B2
:100750000846006840F00200086000BF0348083007
:10076000006800F00C000828F8D10CBD00380240E9
:100770000070004008544007003C024070470000F1
:1007800010B51548006840F470001349086013481C
:10079000006840F001001149086000200F4908314D
:1007A00008600E4800680E4908400C4908600D4872
:1007B000091D0860081F006820F48020091F0860D8
:1007C000002006490C310860FFF762FF4FF000601F
:1007D00001498039086010BD88ED00E00038024012
:1007E000FFFFF6FE1030002410B50121054800F08F
:1007F0001AF8012805D100F0EDFC0121014800F0B4
:1008000003F810BD00040040CA430282704721B1C2
:10081000028842F00102028004E002884FF6FE7373
:100820001A400280704730B50246002000230024A1
:10083000158A05EA0103958905EA010413B10CB193
:10084000012000E0002030BD1AB183890B43838171
:1008500002E083898B438381704700000022028875
:10086000184B98420ED0184B98420BD0B0F1804FE5
:1008700008D0164B984205D0154B984202D0154B24
:10088000984204D14FF68F731A404B881A43124B8B
:10089000984207D0114B984204D04FF6FF431A40BC
:1008A0000B891A4302804B68C3620B880385054B92
:1008B000984202D0044B984201D18B7A03860123DF
:1008C00083827047000001400004014000040040A2
:1008D00000080040000C00400010004000140040E0
:1008E00010B540F22551134800F04EF858B11148A8
:1008F00000F004F91049114A127888540F48007822
:10090000401C0E49087040F224410A4800F03CF8AF
:1009100070B1084800F0F2F8094908804FF6FF70FE
:10092000088000200449054A127888540349087059
:1009300010BD000000100140A000002001000020B8
:100940000200002001F40072B2F5007F00D100BF68
:10095000CA430280704721B1828942F400528281E9
:1009600004E082894DF6FF731A4082817047024687
:100970000020B1F5007F00D100BF13880B400BB100
:10098000012000E00020704770B5024600240023DB
:100990000025002040F66A16B14200D100BFC1F325
:1009A000421501F01F03012606FA03F3012D02D1BF
:1009B0009689334006E0022D02D1168A334001E0C9
:1009C000968A33400C12012606FA04F41688344045
:1009D00013B10CB1012000E0002070BDF0B503465A
:1009E000002400260025002040F66A17B94200D1F5
:1009F00000BF1846C1F3421401F01F06012707FA91
:100A000006F5012C01D10C3004E0022C01D110308C
:100A100000E014301AB107682F43076002E007684E
:100A2000AF430760F0BD00002DE9FF4705460E46C5
:100A30000024A14600BFA046B08900B100BF2C8AA7
:100A400024F44054F08804432C82AC8941F20C60B9
:100A50008443B08831890843718908430443AC81D9
:100A6000AC8A24F44074B0890443AC826846FFF732
:100A700099FD2048854202D01F48854202D1DDF809
:100A80000C9001E0DDF80890A88900F4004040B126
:100A900009EBC90000EB091031684900B0FBF1F720
:100AA00007E009EBC90000EB091031688900B0FBD1
:100AB000F1F76420B7FBF0F004012009642101FB89
:100AC0001078A88900F4004040B1322000EBC80043
:100AD000B0FBF1F000F00700044308E0322000EB27
:100AE00008106421B0FBF1F000F00F0004432C81EA
:100AF000BDE8FF87001001400014014001468888CE
:100B0000C0F308007047C1F308028280704700BF3D
:100B1000FEE700000FB4054B10B503A9044A029884
:100B200000F018F810BC5DF814FB0000DD100008A0
:100B30003800002002E008C8121F08C1002AFAD1BC
:100B400070477047002001E001C1121F002AFBD14D
:100B5000704700002DE9FF4F8DB00F460546002677
:100B600006E025280BD0DDE90F1290476D1C761C9E
:100B700028780028F5D111B03046BDE8F08F002468
:100B8000A246A1460122EC4900E0044315F8013FCA
:100B9000203B02FA03F00842F7D128782A2810D027
:100BA0006FF02F022878A0F13001092914D80AEB40
:100BB0008A0102EB410144F0020400EB010A6D1CC2
:100BC000F0E701CF5FEA000A03D544F40054CAF10C
:100BD000000A44F002046D1C28782E2817D115F85D
:100BE000010F44F004042A280ED06FF02F02287859
:100BF000A0F1300109290AD809EB890102EB410172
:100C000000EB01096D1CF2E757F8049B6D1C287876
:100C10006C280FD006DC4C2817D068280DD06A2825
:100C200014D104E0742810D07A280FD10DE044F4D8
:100C300000140AE044F4801401E044F4401469789C
:100C4000814202D104F580146D1C6D1C2A786E2A35
:100C50001FD00CDC632A31D004DC002A8BD0582A48
:100C600011D1A3E0642A68D0692A0CD165E0732A07
:100C70002ED004DC6F2A73D0702A04D19BE0752A31
:100C80006FD0782A6ED01046DDE90F129047761C9F
:100C900050E1C4F30250022806D0032809D00428EA
:100CA00001CF09D0066045E101CFF117C0E900612D
:100CB00040E101CF06803DE106703BE117F8040BEF
:100CC0008DF8000000208DF80100EB46012003E0C4
:100CD00057F804BB4FF0FF3061074FF0000102D41A
:100CE0000DE008F10101884649450FDA8045F8DB3F
:100CF0001BF808100029F4D108E008F1010188462A
:100D00008142FADB1BF808100029F6D1DDE90F2338
:100D1000AAEB08008146214600F036F9304400EB8A
:100D2000080604E0DDE90F121BF8010B9047B8F14B
:100D30000108F7D221464846F7E00A21C4F30253DE
:100D40004FF0000B0891022B04D001CFC117032BE9
:100D500009D00AE0FF1D27F00707F7E8020108E0C5
:100D600032E01FE020E000B2C117042B01D140B2F5
:100D7000C117031E71F1000307DA4FF0000CD0EB2E
:100D80000C006CEB01012D2302E0230504D52B237D
:100D90008DF82430012303E0E30701D02023F7E797
:100DA000984658E00A2110E010210EE010204FF084
:100DB000000B08900CE010214FF0000B44F00404ED
:100DC0004FF00809089103E008214FF0000B08914B
:100DD000C4F30253022B04D001CF0021032B06D011
:100DE00006E0FF1D27F00707F7E8020103E080B2E5
:100DF000042B00D1C0B24FF0000823072BD5702A76
:100E000007D0DDF820C08CF0100C5CEA0B0C05D08C
:100E10000EE040238DF82430012308E050EA01035E
:100E200006D030238DF824308DF8252002239846F3
:100E3000DDF820C08CF0080C5CEA0B0C0BD150EAFA
:100E4000010301D1630706D530238DF824304FF01C
:100E50000108A9F10109582A04D038A20B9208AA66
:100E60000A920BE03AA2F9E75B46089AFFF7B6F957
:100E70000B9B9B5C0A9A521E0A92137050EA010265
:100E8000F2D10A98ADEB000000F1200B600702D50B
:100E900024F4803401E04FF00109D94502DDA9EBCB
:100EA0000B0000E0002000EB0B0141440890AAEB8E
:100EB000010AE00306D4DDE90F232146504600F085
:100EC00063F806444FF0000908E009A911F8090089
:100ED000DDE90F12904709F10109761CC145F4DBE9
:100EE000E0030CD5DDE90F232146504600F04CF815
:100EF000064404E0DDE90F1230209047761C089983
:100F0000481E08900029F5DC08E00A980A99007844
:100F1000491C0A91DDE90F129047761CBBF10001D4
:100F2000ABF1010BF1DC21465046DDE90F2300F067
:100F300019F806446D1C1BE60928010030313233D4
:100F40003435363738396162636465660000000005
:100F500030313233343536373839414243444546EF
:100F6000000000002DE9F041044600251E4617460A
:100F7000880404D405E039462020B0476D1C641E67
:100F8000F9D52846BDE8F0812DE9F0410446002559
:100F90001E469046C80301D5302700E0202788046C
:100FA00004D505E041463846B0476D1C641EF9D5AE
:100FB0002846BDE8F08100007FB505460C460121BA
:100FC0000220FFF7CFFA0295ADF804400020ADF8FB
:100FD00006004FF40070ADF80C0001A90D48FFF7B2
:100FE0003DFC012211460B48FFF72EFC0121094868
:100FF000FFF70DFC1D208DF8000001208DF8010089
:1010000003208DF8020001208DF803006846FFF7E9
:10101000C9F97FBD000400402DE9F04106460C46A9
:10102000174625462878012803D105A0FFF772FD51
:1010300002E005A0FFF76EFD0120BDE8F081000091
:101040006C6564206F6E0A006C656E64206F666666
:101050000A00000010B504461CB104A0FFF75AFDB9
:1010600002E005A0FFF756FD10BD0000627370207E
:101070006C6564206F6E0A00627370206C6564207A
:101080006F66660070B50546074C07E02946206884
:10109000FFF796F808B9204670BD0C340348844227
:1010A000F4D10020F8E700001813000830130008FE
:1010B00070B50546074C07E029462068FFF780F821
:1010C00008B9204670BD083403488442F4D100209A
:1010D000F8E70000441300084C13000870B50446FC
:1010E0000D46E1B20548FFF70EFD00BF8021034821
:1010F000FFF73DFC0028F9D0204670BD00100140EC
:1011000010B5034614460A460120107010BD0000B9
:101110001CB54FF4A060FFF781F94FF4E13000F007
:101120008BF850214FF47B70FFF746FF1CA0FFF7B0
:10113000A9FF04461BA0FFF7A5FF05461AA0FFF76D
:10114000B7FF06462BE00020019000BF01A800F089
:1011500059F8B0F5FA6FF9D3A06850B101200090AA
:1011600013A0FFF7D7FC012269460020A368984727
:1011700002E012A0FFF7CEFC55B101226946002023
:101180006B6898479DF800100FA0FFF7C3FC00BFE5
:1011900026B1776801203968884700BF00BFD2E7D1
:1011A0006C6564006B657900696F5F6C6564000055
:1011B000666F756E64206C65640A00006E6F206651
:1011C0006F756E640A0000007374617465203D20C1
:1011D000256400000948006800F01F0008494871B4
:1011E000084600684A790121914008430449086093
:1011F00002480068401C0149086070471400002044
:10120000180000200146086810B90A480068086004
:10121000084A08681268904204D8064A08681268AA
:10122000101A70470868C0F1FF30024A1268104473
:10123000F7E700001400002010B588B00446012133
:101240000846FFF77FF901211020FFF79BF90722DD
:1012500009212748FFF770F807220A212448FFF7E1
:101260006BF84FF4C060069002208DF81C008DF8DA
:101270001D0000208DF81E0001208DF81F0006A91A
:101280001B48FFF711F802940020ADF80C00ADF8F0
:101290000E00ADF81000ADF814000C20ADF81200EF
:1012A00002A91448FFF7C0FB01211248FFF753FBC6
:1012B00040211048FFF746FB012240F225510D481E
:1012C000FFF78CFB012240F224410A48FFF786FB1E
:1012D00025208DF8040003208DF805008DF8060008
:1012E00001208DF8070001A8FFF75CF808B010BDD9
:1012F000000002400010014055100008696F5F6C4B
:10130000656400006C6564006B6579000000000096
:1013100000000000000000000413000800000000AE
:10132000191000080813000801110008000000004F
:1013300000000000000000000000000000000000AD
:1013400000000000FC120008F81200080000000075
:101350000000000074130008000000203C000000A2
:10136000340B0008B01300083C0000202C050000DE
:10137000440B00080000000000000000010203040C
:101380000102030406070809000000000000000035
:101390000000000020000020200000202800002085
:1013A0002800002030000020300000200000000055
:040000050800018965
:00000001FF
