:020000040800F2
:1000000048060020A101000819060008B1040008F4
:1000100015060008DD020008C70D000800000000FA
:10002000000000000000000000000000450900087A
:10003000E102000800000000D7060008350A0008A9
:10004000BB010008BB010008BB010008BB010008A0
:10005000BB010008BB010008BB010008BB01000890
:10006000BB010008BB010008BB010008BB01000880
:10007000BB010008BB010008BB010008BB01000870
:10008000BB010008BB010008BB010008BB01000860
:10009000BB010008BB010008BB010008BB01000850
:1000A000BB010008BB010008BB010008BB01000840
:1000B000BB010008A10A0008BB010008BB01000841
:1000C000BB010008BB010008BB010008BB01000820
:1000D000BB010008990B0008BB010008BB01000828
:1000E000BB010008BB010008BB010008BB01000800
:1000F000BB010008BB010008BB010008BB010008F0
:10010000BB010008BB010008BB010008BB010008DF
:10011000BB010008BB010008BB010008BB010008CF
:10012000BB010008BB010008BB010008BB010008BF
:10013000BB010008BB010008BB010008BB010008AF
:10014000BB010008BB010008BB010008BB0100089F
:10015000BB010008BB010008BB010008BB0100088F
:10016000BB010008BB010008BB010008BB0100087F
:10017000BB010008BB010008BB010008BB0100086F
:10018000BB010008BB010008DFF810D000F06EF8DA
:1001900000F02AF800480047991600084806002099
:1001A0000648804706480047FEE7FEE7FEE7FEE711
:1001B000FEE7FEE7FEE7FEE7FEE7FEE7390A000896
:1001C0008901000840EA01039B0703D009E008C940
:1001D000121F08C0042AFAD203E011F8013B00F80C
:1001E000013B521EF9D2704770B5054C054D03E036
:1001F000206820448047241DAC42F9D170BD000026
:100200003C1B0008481B00082DE9F05F0546002054
:1002100092469B4688460646814640241BE0284677
:1002200041464746224600F042F853465A46C01A15
:10023000914110D311461846224600F029F82D1A94
:1002400067EB01084F4622460120002100F020F80C
:1002500017EB00094E41201EA4F10104DFDC4846E3
:1002600031462A464346BDE8F09F0000064C074D44
:1002700006E0E06840F0010394E807009847103476
:10028000AC42F6D3FFF784FF1C1B00083C1B0008A0
:10029000202A04DB203A00FA02F100207047914046
:1002A000C2F1200320FA03F3194390407047202A3B
:1002B00004DB203A21FA02F00021704721FA02F310
:1002C000D040C2F120029140084319467047000017
:1002D0000149086070470000D000002000BFFEE721
:1002E0007047F0B50A4600210023002400BF3DE01E
:1002F000012505FA01F3156805EA03049C4234D18F
:1003000005684F000326BE40B543056015794E00D1
:10031000B5400668354305601579012D02D0157981
:10032000022D16D185684F000326BE40B543856077
:1003300055794E00B540866835438560456801268D
:100340008E40B5434560456896798E40B6B23543D8
:100350004560C5684F000326BE40B543C560D579EA
:100360004E00B540C6683543C560491C1029BFD34F
:10037000F0BDF0B5002300244D07ED0E02FA05F3A1
:10038000CE1000F1200555F826504E07F70E0F2627
:10039000BE40B543CF1000F1200646F82750CE10DE
:1003A00000F1200555F8265045EA0304CE1000F16F
:1003B000200545F82640F0BD0246002013690B4099
:1003C0000BB1012000E0002070474183704701839A
:1003D000704700002DE9F04104460F464FF0000839
:1003E00047B92078012805D130480068804760600F
:1003F00000202070012F53D12C480068804705460B
:100400002078012800D165606068A84202D8606841
:10041000281A03E06068C0F1FF3028440646142E15
:1004200004D9C82E02D24FF001080CE0C82E05D323
:10043000B6F57A7F02D24FF0020804E0B6F57A7F73
:1004400001D34FF00308B8F1010F01DD0020207344
:10045000B8F1010F05D1207B401C2073A5604FF03F
:100460000008207BC8B1A168A94202D8A168691A16
:1004700003E0A168C1F1FF3129440846C82804D926
:100480004FF001080021217306E0217B022903D1EE
:100490004FF004080021217300BF65600120207027
:1004A000404601F035F84046BDE8F081D00000201C
:1004B00000BFEFF308800446204600F00DF900BFAE
:1004C000EFF309800546284600F006F900BFFEE775
:1004D00010B50289521C838892FBF3F403FB1422AB
:1004E000C3889A420DD103890268D154C28802811F
:1004F000C288521C838892FBF3F403FB1422C2804F
:100500000AE003890268D1540289521C838892FB55
:10051000F3F403FB1422028110BD00001CB501217D
:10052000202000F06BF90121202000F067F9012163
:10053000202000F063F90121202000F05FF9402025
:10054000009000208DF8040003208DF805000120A4
:100550008DF8070069460C48FFF7C3FE8020009025
:1005600069460948FFF7BDFE4FF480700090694668
:100570000548FFF7B6FE4FF4007000906946024848
:10058000FFF7AFFE1CBD0000001402401CB50121A6
:10059000102000F033F90121102000F02FF9012183
:1005A000402000F02BF90820009001208DF8040075
:1005B00000208DF8060003208DF8050001208DF83D
:1005C000070069461148FFF78CFE1020009069462D
:1005D0000E48FFF786FE4FF40070009069460C4805
:1005E000FFF77FFE00BF08210848FFF7F0FE00BFBD
:1005F00000BF10210548FFF7EAFE00BF00BF4FF41F
:1006000000710348FFF7E3FE00BF1CBD001002406D
:100610000018024000BFFEE77047000070B50021DF
:1006200000230F22C4781CB3174C246804F4E06440
:10063000C4F5E064C4F30721C1F10404E3B20A4144
:1006400044789C40E1B28478144021430C07210E89
:100650000E4C05786155047804F01F050124AC4068
:1006600005786D11AD0005F1E025C5F8004109E000
:10067000047804F01F050124AC40054D067876117E
:1006800045F8264070BD00000CED00E000E400E0FD
:1006900080E100E002490143024A11607047000016
:1006A0000000FA050CED00E010B503460C461846B4
:1006B00000F09AF808B1002010BDD9881868405C95
:1006C0002070D888401C998890FBF1F201FB120041
:1006D000D8800120F0E7704770B5044613A000F001
:1006E00075FB254621A0296800F070FB22A06968EF
:1006F00000F06CFB23A0A96800F068FB24A0E96867
:1007000000F064FB25A0296900F060FB27A069695F
:1007100000F05CFB28A0A96900F058FB29A0E9695A
:1007200000F054FB2BA000F051FB70BD0D0A2D2DE5
:100730002D2D2D2D2D2D2D2D2D2D2D2D2D2D2D45D1
:1007400052524F52202D2D2D2D2D2D2D2D2D2D2D55
:100750002D2D2D2D2D2D0D0A486172644661756C6D
:10076000745F48616E646C65720D0A0052303A30F5
:1007700078253038580D0A0052313A307825303813
:10078000580D0A0052323A3078253038580D0A0098
:1007900052333A3078253038580D0A005231323A07
:1007A0003078253038580D0A000000004C523A309D
:1007B00078253038580D0A0050433A3078253038C3
:1007C000580D0A00785053523A3078253038580D79
:1007D0000A000000CFB5CDB3BCB4BDABB8B4CEBB3E
:1007E000202E2E2E0D0A00000146C8880A8990424C
:1007F00001D1012070470020FCE7000029B1064A22
:1008000012680243044B1A6004E0034A12688243F0
:10081000014B1A60704700003038024029B1064A87
:1008200012680243044B1A6004E0034A12688243D0
:10083000014B1A60704700004038024029B1064A57
:1008400012680243044B1A6004E0034A12688243B0
:10085000014B1A607047000044380240F0B5002197
:1008600000220024022500260223324F3F6807F0B1
:100870000C0121B1042905D0082937D105E02E4FFC
:10088000076036E02D4F076033E02A4F3F1F3F6877
:10089000C7F38056274F3F1F3F6807F03F036EB1F5
:1008A000264FB7FBF3F7DFF88CC0ACF1040CDCF893
:1008B00000C0CCF3881C07FB0CF40CE01E4FB7FB08
:1008C000F3F7DFF870C0ACF1040CDCF800C0CCF337
:1008D000881C07FB0CF4174F3F1F3F68C7F3014705
:1008E0007F1C7D00B4FBF5F7076002E0124F076044
:1008F00000BF00BF0F4F3F6807F0F0010909104F1C
:100900007A5C0768D74047600A4F3F6807F4E051B8
:10091000890A0B4F7A5C4768D7408760054F3F686C
:1009200007F46041490B064F7A5C4768D740C760BF
:10093000F0BD0000083802400024F40000127A00E4
:10094000A4000020704700000CB50020019000902A
:100950003448006840F480303249086000BF3148B4
:10096000006800F4003000900198401C019000984D
:1009700018B90198B0F5A04FF1D12A48006800F4E9
:10098000003010B10120009001E00020009000989C
:10099000012846D123484030006840F0805021496A
:1009A000403108602048006840F440401E4908601B
:1009B0001C48083000681B49083108600846006878
:1009C00040F4004008600846006840F4A050086009
:1009D0001648091F0860081F006840F08070091F52
:1009E000086000BF0F48006800F000700028F9D0D0
:1009F00040F205700E4908600A480830006820F08F
:100A000003000849083108600846006840F0020009
:100A1000086000BF03480830006800F00C00082898
:100A2000F8D10CBD00380240007000400854400767
:100A3000003C02407047000010B51548006840F4C3
:100A40007000134908601348006840F00100114924
:100A5000086000200F49083108600E4800680E4900
:100A600008400C4908600D48091D0860081F00680F
:100A700020F48020091F0860002006490C3108601E
:100A8000FFF762FF4FF0006001498039086010BD38
:100A900088ED00E000380240FFFFF6FE1030002431
:100AA00010B50121054800F01AF8012805D100F021
:100AB0009FFF0121014800F003F810BD0004004031
:100AC000CA430282704721B1028842F001020280CB
:100AD00004E002884FF6FE731A400280704730B57A
:100AE0000246002000230024158A05EA01039589A7
:100AF00005EA010413B10CB1012000E0002030BD73
:100B00001AB183890B43838102E083898B438381FC
:100B10007047000000220288184B98420ED0184BF4
:100B200098420BD0B0F1804F08D0164B984205D0B8
:100B3000154B984202D0154B984204D14FF68F7353
:100B40001A404B881A43124B984207D0114B9842D7
:100B500004D04FF6FF431A400B891A4302804B68BA
:100B6000C3620B880385054B984202D0044B984220
:100B700001D18B7A038601238382704700000140F4
:100B8000000401400004004000080040000C004048
:100B9000001000400014004010B540F225511348E9
:100BA00000F04EF858B1114800F004F91049114A0C
:100BB000127888540F480078401C0E49087040F2A3
:100BC00024410A4800F03CF870B1084800F0F2F8FF
:100BD000094908804FF6FF70088000200449054A43
:100BE000127888540349087010BD000000100140BD
:100BF00058010020A1000020A200002001F4007292
:100C0000B2F5007F00D100BFCA430280704721B116
:100C1000828942F40052828104E082894DF6FF739A
:100C20001A408281704702460020B1F5007F00D152
:100C300000BF13880B400BB1012000E0002070477B
:100C400070B50246002400230025002040F66A16F5
:100C5000B14200D100BFC1F3421501F01F030126CC
:100C600006FA03F3012D02D19689334006E0022DE6
:100C700002D1168A334001E0968A33400C120126D5
:100C800006FA04F41688344013B10CB1012000E0D8
:100C9000002070BDF0B5034600240026002500208A
:100CA00040F66A17B94200D100BF1846C1F342149A
:100CB00001F01F06012707FA06F5012C01D10C30BF
:100CC00004E0022C01D1103000E014301AB10768A2
:100CD0002F43076002E00768AF430760F0BD0000E4
:100CE0002DE9FF4705460E460024A14600BFA04659
:100CF000B08900B100BF2C8A24F44054F08804432A
:100D00002C82AC8941F20C608443B088318908435D
:100D1000718908430443AC81AC8A24F44074B089DF
:100D20000443AC826846FFF799FD2048854202D013
:100D30001F48854202D1DDF80C9001E0DDF80890F3
:100D4000A88900F4004040B109EBC90000EB09108C
:100D500031684900B0FBF1F707E009EBC90000EB8F
:100D6000091031688900B0FBF1F76420B7FBF0F09F
:100D700004012009642101FB1078A88900F40040D7
:100D800040B1322000EBC800B0FBF1F000F00700EA
:100D9000044308E0322000EB08106421B0FBF1F0BE
:100DA00000F00F0004432C81BDE8FF8700100140D4
:100DB0000014014001468888C0F308007047C1F361
:100DC00008028280704700BFFEE700000FB4054BA9
:100DD00010B503A9044A029800F018F810BC5DF899
:100DE00014FB0000ED140008F000002002E008C829
:100DF000121F08C1002AFAD170477047002001E095
:100E000001C1121F002AFBD1704700002DE9FF4FDE
:100E10008DB00F460546002606E025280BD0DDE9FB
:100E20000F1290476D1C761C28780028F5D111B060
:100E30003046BDE8F08F0024A246A1460122EC49CD
:100E400000E0044315F8013F203B02FA03F008429A
:100E5000F7D128782A2810D06FF02F022878A0F137
:100E60003001092914D80AEB8A0102EB410144F050
:100E7000020400EB010A6D1CF0E701CF5FEA000AF3
:100E800003D544F40054CAF1000A44F002046D1C76
:100E900028782E2817D115F8010F44F004042A28C9
:100EA0000ED06FF02F022878A0F1300109290AD85E
:100EB00009EB890102EB410100EB01096D1CF2E72E
:100EC00057F8049B6D1C28786C280FD006DC4C2842
:100ED00017D068280DD06A2814D104E0742810D0E7
:100EE0007A280FD10DE044F400140AE044F4801491
:100EF00001E044F440146978814202D104F5801481
:100F00006D1C6D1C2A786E2A1FD00CDC632A31D030
:100F100004DC002A8BD0582A11D1A3E0642A68D0BF
:100F2000692A0CD165E0732A2ED004DC6F2A73D0B5
:100F3000702A04D19BE0752A6FD0782A6ED01046B3
:100F4000DDE90F129047761C50E1C4F302500228ED
:100F500006D0032809D0042801CF09D0066045E156
:100F600001CFF117C0E9006140E101CF06803DE10A
:100F700006703BE117F8040B8DF8000000208DF897
:100F80000100EB46012003E057F804BB4FF0FF30AF
:100F900061074FF0000102D40DE008F1010188461D
:100FA00049450FDA8045F8DB1BF808100029F4D119
:100FB00008E008F1010188468142FADB1BF80810BD
:100FC0000029F6D1DDE90F23AAEB0800814621466E
:100FD00000F036F9304400EB080604E0DDE90F12BA
:100FE0001BF8010B9047B8F10108F7D2214648469B
:100FF000F7E00A21C4F302534FF0000B0891022BD3
:1010000004D001CFC117032B09D00AE0FF1D27F040
:101010000707F7E8020108E032E01FE020E000B235
:10102000C117042B01D140B2C117031E71F1000397
:1010300007DA4FF0000CD0EB0C006CEB01012D2314
:1010400002E0230504D52B238DF82430012303E08F
:10105000E30701D02023F7E7984658E00A2110E083
:1010600010210EE010204FF0000B08900CE0102132
:101070004FF0000B44F004044FF00809089103E01E
:1010800008214FF0000B0891C4F30253022B04D047
:1010900001CF0021032B06D006E0FF1D27F0070734
:1010A000F7E8020103E080B2042B00D1C0B24FF098
:1010B000000823072BD5702A07D0DDF820C08CF05C
:1010C000100C5CEA0B0C05D00EE040238DF82430A8
:1010D000012308E050EA010306D030238DF82430C4
:1010E0008DF8252002239846DDF820C08CF0080CEE
:1010F0005CEA0B0C0BD150EA010301D1630706D562
:1011000030238DF824304FF00108A9F10109582A45
:1011100004D038A20B9208AA0A920BE03AA2F9E78F
:101120005B46089AFFF770F80B9B9B5C0A9A521E6D
:101130000A92137050EA0102F2D10A98ADEB000056
:1011400000F1200B600702D524F4803401E04FF059
:101150000109D94502DDA9EB0B0000E0002000EBFE
:101160000B0141440890AAEB010AE00306D4DDE933
:101170000F232146504600F063F806444FF0000963
:1011800008E009A911F80900DDE90F12904709F1FB
:101190000109761CC145F4DBE0030CD5DDE90F2322
:1011A0002146504600F04CF8064404E0DDE90F12F9
:1011B00030209047761C0899481E08900029F5DCDD
:1011C00008E00A980A990078491C0A91DDE90F1293
:1011D0009047761CBBF10001ABF1010BF1DC21461D
:1011E0005046DDE90F2300F019F806446D1C1BE69C
:1011F00009280100303132333435363738396162ED
:1012000063646566000000003031323334353637B0
:101210003839414243444546000000002DE9F04181
:10122000044600251E461746880404D405E03946C6
:101230002020B0476D1C641EF9D52846BDE8F0811A
:101240002DE9F041044600251E469046C80301D50D
:10125000302700E02027880404D505E041463846C1
:10126000B0476D1C641EF9D52846BDE8F08100002A
:1012700070B504460D466560608928B9054904F1DA
:10128000100000F0F8F904E0034904F1100000F048
:10129000F2F970BDC0000020B800002070B5002039
:1012A000234908700846007A00BB22480068FFF70F
:1012B000FBF9D8B1002416E01D4800781E4911F84A
:1012C000341088420ED11A4840681B4911F8342066
:1012D00001219140084316494860174810F834002E
:1012E000087002E0641C202CE6D300BF00241CE040
:1012F0000F4840680121A1400840A8B1002510E036
:101300000120A0400C4911F835200121914088426C
:1013100006D1094800EBC50041680548884702E04E
:101320006D1C202DECD300BF641C052CE0DB70BDD0
:1013300038020020E0000020FC1A00087FB50546B6
:101340000C4601210220FFF769FA0295ADF804402E
:101350000020ADF806004FF40070ADF80C0001A9B4
:101360000D48FFF7D7FB012211460B48FFF7C8FBDA
:1013700001210948FFF7A7FB1D208DF8000001207F
:101380008DF8010003208DF8020001208DF8030084
:101390006846FFF743F97FBD000400402DE9F041A6
:1013A00005460E461746012F03D1288940F4804098
:1013B000288125480068A0F110040BE0AC4206D15A
:1013C0006660208920F400402081BDE8F08120691A
:1013D000A0F1100404F110001B498842EED11B4813
:1013E0000068A0F1100406E0AC4201D16660ECE7B1
:1013F0002069A0F1100404F1100014498842F3D1CF
:1014000013480068A0F110040CE0AC4207D16660FC
:101410006089A0810E49204600F072F9D5E7206965
:10142000A0F1100404F1100009498842EDD1688947
:10143000A8810020688131462846FFF719FFA88956
:10144000688100BFC1E70000C8000020C000002084
:10145000B80000200148006870470000B400002078
:1014600070B505461E480068A0F1100409E0AC42C2
:1014700004D104F1100000F005F970BD2069A0F15D
:10148000100404F1100016498842F0D11548006894
:10149000A0F1100409E0AC4204D1208940F40040DE
:1014A0002081EAE72069A0F1100404F110000D4941
:1014B0008842F0D10C480068A0F1100409E0AC4269
:1014C00004D104F1100000F0DDF8D6E72069A0F1A6
:1014D000100404F1100004498842F0D100BFCCE7A9
:1014E000B8000020C8000020C000002070B50446ED
:1014F0000D46E1B20548FFF762FC00BF80210348BA
:10150000FFF791FB0028F9D0204670BD0010014084
:1015100070B50546044C03E0284621688847241D21
:1015200002488442F8D170BDEC1A0008F81A00088D
:1015300070B505460848006820B9FEF7EFFF0120A6
:101540000549086040210548FEF736FF044621465C
:101550000348FEF73FFF70BD30000020001402403A
:101560003400002010B504461748006808B901206F
:1015700000E000201449086000BF0846006820B160
:1015800008211248FEF721FF03E008210F48FEF76B
:101590001EFF00BF0E480068401C0D490860012076
:1015A00020720846006806280DDD00BF08210748A4
:1015B000FEF70DFF00BF002005490860207260683B
:1015C00020F00800606010BDE8000020001002401C
:1015D000E400002010B50446207800280ADD2078B9
:1015E000042807DA00200F490870606820F0100016
:1015F000606010BD0B48007808B9012000E00020B1
:101600000849087000BF0846007820B10821064844
:10161000FEF7DBFE03E008210348FEF7D8FE00BF1B
:1016200000BFE6E7EC0000200010024010B50446C1
:1016300000BF08210448FEF7CAFE00BF606820F022
:101640000200606010BD00000010024010B50446AA
:1016500000BF08210448FEF7B8FE00BF606820F014
:101660000400606010BD00000010024010B5044688
:10167000FFF714FE10BD4A684860016042601060C8
:1016800000BF7047D0E900124A60116000BF00211E
:1016900001604160704700004FF4A060FEF7FAFF60
:1016A0004FF4E13000F0C0F9532140F2E730FFF78A
:1016B00045FE0B48FEF70CFEFEF730FFFEF766FF17
:1016C00000210848FFF7D4FD00210748FFF7D0FDAF
:1016D00006A0FFF77BFB01E000F056F8FCE70000F6
:1016E000551400080000002018000020737973745E
:1016F000656D2073746172742E2E2E0D0A00000029
:1017000070B504460D461848854209D104F1100011
:10171000FFF7B8FF154904F11000FFF7ACFF21E017
:101720001248854209D104F11000FFF7ABFF1049C0
:1017300004F11000FFF79FFF14E0608948B104F145
:101740001000FFF79FFF084904F11000FFF793FF17
:1017500008E004F11000FFF795FF044904F11000C0
:10176000FFF789FF70BD0000B8000020C000002016
:10177000C800002070B504460D46012229462046C7
:10178000FFF70CFE70BD000030B587B04B480089F4
:101790004A4901EBE0000078098901F007020121C4
:1017A00091400840002837D045480068A0F1100457
:1017B00013E0A089401EA081A08958B918222146B3
:1017C00001A8FEF7FFFC6089A0813D492046FFF794
:1017D00097FF01AC2069A0F1100404F11000384912
:1017E0008842E6D1354A1089C21700EB5272334B5A
:1017F00003EBE2010A781B8903F007050123AB40E4
:101800009A430A702D480089401C2C4908810846DB
:10181000008900F03F0008812A480068A0F1100408
:101820000CE01822214601A8FEF7CCFC25492046F1
:10183000FFF766FF01AC2069A0F1100404F110006D
:1018400020498842EDD120480068A0F110042DE025
:101850001822214601A8FEF7B5FC608920B11A497B
:101860002046FFF74DFF03E017492046FFF748FFEA
:10187000208900F4004038B12046FFF7F1FD2089AF
:1018800020F4004020810DE0D4E900108847208931
:1018900000F4804030B1208920F48040208120462F
:1018A000FFF7DEFD01AC2069A0F1100404F1100087
:1018B00005498842CCD107B030BD0000200200208D
:1018C000B8000020C0000020C800002010B5044669
:1018D000022C02D1032000F011F810BD10B504460F
:1018E000042C01D100F00AF810BD10B50446012CFB
:1018F00002D1022000F002F810BD000010B504462D
:10190000214602480068FEF7E3FD10BDE00000201C
:1019100070B5044625680A480068401C08490860FC
:1019200008A0FFF753FA06480068022806DD0749B9
:101930000748FFF71FFF00200149086070BD000045
:10194000600000207461736B310A000064000020A5
:101950006800002010B502490248FFF789FC10BD5D
:101960005C0000204400002010B5044607480068D1
:10197000401C0649086008460068192805DD04482F
:10198000FFF76EFD00200149086010BD80000020B7
:101990006800002010B500210148FFF769FC10BD68
:1019A0006800002010B5044609480068401C08493A
:1019B000086008460068B0F5967F08DB05A0FFF7D1
:1019C00005FA0020024908600448FFF749FD10BDF0
:1019D0009C0000207461736B330D0A0068000020C6
:1019E00010B500210148FFF743FC10BD8400002022
:1019F0000B48006800F03F000A4948814989094ABC
:101A000002EBE1000178528902F0070301229A40BB
:101A10001143017002480068401C0149086070478A
:101A2000B40000202002002010B588B00446012137
:101A30000846FEF7E3FE01211020FEF7FFFE072215
:101A400009212748FEF795FC07220A212448FEF7C2
:101A500090FC4FF4C060069002208DF81C008DF8B9
:101A60001D0000208DF81E0001208DF81F0006A922
:101A70001B48FEF736FC02940020ADF80C00ADF8D0
:101A80000E00ADF81000ADF814000C20ADF81200F7
:101A900002A91448FFF724F901211248FFF7B7F80B
:101AA00040211048FFF7AAF8012240F225510D48C5
:101AB000FFF7F0F8012240F224410A48FFF7EAF864
:101AC00025208DF8040003208DF805008DF8060010
:101AD00001208DF8070001A8FEF7A0FD08B010BD99
:101AE000000002400010014000000000EB18000858
:101AF000CD180008DD1800080000000004000000F8
:101B0000D51500080300000065150008010000005D
:101B10002D160008020000004D160008481B0008A2
:101B200000000020F4000000EC0D00083C1C000840
:101B3000F400002054050000FC0D000819FEFFFF12
:101B400055FEFFFF9DFEFFFF31150008000000005D
:101B50000000010001000000000000000000000083
:101B60006D160008000000000000C800C80000005A
:101B70000000000000000000000000000100000064
:101B80000000000000000000000000001119000823
:101B9000000000000000F401F4010000000000005B
:101BA0000000000005000000000000000A00000026
:101BB0006919000800000000000003000300000095
:101BC000000000000000000000000000A51900084F
:101BD0000000000000000200020000000000000001
:101BE00000000000000000000000000000000000F5
:101BF00001020304010203040607080900000000B3
:101C0000B8000020B8000020C0000020C000002064
:101C1000C8000020C8000020000000002C020020A6
:101C20000A00000000000000D400002000000000B6
:0C1C3000000000000000000000000000A8
:040000050800018965
:00000001FF
